:020000040800F2
:100000000050002001050008E5040008E70400088E
:10001000E9040008EB040008ED04000800000000FB
:10002000000000000000000000000000EF040008D5
:10003000F104000800000000F3040008F5040008C3
:100040004905000849050008490500084905000858
:100050004905000849050008490500084905000848
:100060004905000849050008490500084905000838
:100070004905000849050008490500084905000828
:100080004905000849050008490500084905000818
:100090004905000849050008490500084905000808
:1000A00049050008490500084905000849050008F8
:1000B00049050008490500084905000849050008E8
:1000C00049050008490500084905000849050008D8
:1000D00049050008490500084905000849050008C8
:1000E000490500084905000849050008000000000E
:1000F0000000000000000000000000000000000000
:0C01000000000000000000005FF808F1A3
:10010C000348044B834202D0034B03B1184770479A
:10011C001000002010000020000000000548064BD5
:10012C001B1AD90F01EBA301491002D0034B03B1E9
:10013C00184770471000002010000020000000003D
:10014C0010B5064C237843B9FFF7DAFF044B13B113
:10015C000448AFF300800123237010BD1000002071
:10016C00000000008414000808B5054B1BB10549BC
:10017C000548AFF30080BDE80840FFF7CFBF00BFD4
:10018C0000000000140000208414000808B50B487F
:10019C000B4B03601023436000238360C360036137
:1001AC004361037643768376C3760377437700F017
:1001BC0011FA00B908BD00F0D5F8FBE72C000020BF
:1001CC000064004010B586B000230293039304939F
:1001DC00059302681A4B9A4201D006B010BD03F584
:1001EC00D633DA6942F00072DA61DA6902F0007231
:1001FC000092009A9A6942F008029A619B6903F096
:10020C0008030193019B4FF4807302930D4C02A9D8
:10021C00204600F0EFFA4FF400730293022303938D
:10022C000323059302A9204600F0E4FA064A53681A
:10023C0023F4C04343F0E06343F480435360CCE7C2
:10024C0000640040000C01400000014030B589B052
:10025C0000240494059406940794184B9A6942F070
:10026C0020029A619A6902F020020192019A9A691D
:10027C0042F004029A619A6902F004020292029A14
:10028C009A6942F008029A619B6903F00803039390
:10029C00039B0B4D22464FF48051284600F0B8FBCF
:1002AC004FF4805304930123059306940223079380
:1002BC0004A9284600F09EFA09B030BD0010024097
:1002CC00000C014008B50B480B4B03600B4B436013
:1002DC0000238360C3604FF48042026143618361F9
:1002EC00C361036200F09AFB00B908BD00F03AF854
:1002FC00FBE700BF5400002000540040A086010022
:10030C0010B586B0002302930393049305930268FF
:10031C00114B9A4201D006B010BD104CA36943F0AA
:10032C000803A361A36903F008030093009BC02397
:10033C000293122303930323059302A9084800F0A8
:10034C0059FAE36943F40013E361E36903F400131E
:10035C000193019BDFE700BF0054004000100240F6
:10036C00000C014072B6FEE700B591B028220021C6
:10037C0006A800F0A1FF00230193029303930493BA
:10038C000593012206924FF4803307930A920222BE
:10039C000D920E934FF4E0130F9306A800F032FC6D
:1003AC0080B90F23019302210291002303934FF490
:1003BC0080620492059301A800F056FE20B911B09A
:1003CC005DF804FBFFF7CEFFFFF7CCFF08B500F09C
:1003DC00DDF8FFF7C9FFFFF739FFFFF7D7FEFFF78F
:1003EC0071FF00F001F8FEE708B50C480C4B0360F8
:1003FC00002343608360C360036143614FF4007268
:10040C0082610362436283620A23C36200F0F8FED6
:10041C0000B908BDFFF7A6FFFBE700BFA80000204E
:10042C000030014010B586B000230293039304936F
:10043C0005930268154B9A4201D006B010BD03F526
:10044C0060439A6942F480529A619A6902F480522C
:10045C000092009A9A6942F004029A619B6903F037
:10046C0004030193019BA0230293094C02A920468B
:10047C0000F0C0F940230293022303930323059356
:10048C0002A9204600F0B6F9D7E700BF00300140C2
:10049C000008014082B00E4B9A6942F001029A6149
:1004AC009A6902F001020092009ADA6942F08052D5
:1004BC00DA61DB6903F080530193019B054A5368B1
:1004CC0023F0E06343F00073536002B0704700BF49
:1004DC000010024000000140FEE7FEE7FEE7FEE7E9
:1004EC00FEE770477047704708B500F061F808BD2B
:1004FC0070470000FFF7FCFF0B480C490C4A002327
:10050C0002E0D458C4500433C4188C42F9D3094ABD
:10051C00094C002301E013600432A242FBD300F02B
:10052C001BFFFFF753FF7047000000201000002056
:10053C00D4140008100000209C020020FEE70000EC
:10054C0010B504460E4B1A784FF47A73B3FBF2F3E2
:10055C000C4A1068B0FBF3F000F038F968B90F2CB6
:10056C0001D901200AE0002221464FF0FF3000F0B3
:10057C001DF9054B1C60002000E0012010BD00BFE0
:10058C0004000020000000200800002008B5074AE5
:10059C00136843F010031360032000F0F5F80F20EC
:1005AC00FFF7CEFFFFF776FF002008BD00200240CA
:1005BC00034A1168034B1B780B441360704700BF50
:1005CC000001002004000020014B1868704700BF98
:1005DC0000010020002800F0A18038B5044690F8F6
:1005EC002030D3B12268136843F001031360FFF786
:1005FC00EBFF054623685A6812F0010F10D1FFF784
:10060C00E3FF401B0A28F5D9636A43F400336362A5
:10061C00052384F82030012038BDFFF7D3FDE1E736
:10062C001A6822F002021A60FFF7CEFF0546236813
:10063C005A6812F0020F0DD0FFF7C6FF401B0A28B4
:10064C00F5D9636A43F400336362052384F82030E0
:10065C000120E1E7227E012A3DD01A6822F08002B7
:10066C001A60637E012B3BD02268136823F0400391
:10067C001360A37E012B39D02268136823F020036A
:10068C001360E37E012B37D02268136843F010030C
:10069C001360237F012B35D02268136823F00803E5
:1006AC001360637F012B33D02268136823F004039B
:1006BC001360A368E268134322691343626913430E
:1006CC006268013A21681343CB6100206062012308
:1006DC0084F82030A0E71A6842F080021A60C0E764
:1006EC002268136843F040031360C2E72268136862
:1006FC0043F020031360C4E72268136823F010034F
:10070C001360C6E72268136843F008031360C8E758
:10071C002268136843F004031360CAE70120704792
:10072C00002808DB0901C9B200F1604000F5614006
:10073C0080F80013704700F00F000901C9B2014B9B
:10074C001954704714ED00E000B500F00700C0F13B
:10075C00070CBCF1040F28BF4FF0040C031D062B33
:10076C000FD9C31E4FF0FF3E0EFA0CF021EA000128
:10077C0099400EFA03FE22EA0E0241EA02005DF8ED
:10078C0004FB0023EEE70000074AD36823F4E06380
:10079C001B041B0C000200F4E060034343F0BF6336
:1007AC0043F40033D360704700ED00E010B504460D
:1007BC00054BD868C0F30220FFF7C6FF0146204660
:1007CC00FFF7AEFF10BD00BF00ED00E00138B0F147
:1007DC00807F0BD24FF0E0235861054AF02182F85C
:1007EC0023100020986107221A617047012070477E
:1007FC0000ED00E070B582B00024A446A1E07E4D6F
:10080C00AB4214D00CD8A5F58015AB420FD005F532
:10081C007025AB420BD0A5F58015AB4210D106E08C
:10082C00764DAB4203D005F58035AB4208D18B68D1
:10083C00002B50D0012B49D04261082400E0CC6839
:10084C00BEF1FF0F49D806464FEA8C0233680F25DC
:10085C00954023EA050304FA02F2134333604B6814
:10086C0013F0805F6BD0664B9A6942F001029A617B
:10087C009B6903F001030193019B4FEA9C02951CB9
:10088C00604B53F825600CF00305AD000F23AB4013
:10089C0026EA03065C4B984226D003F58063984207
:1008AC0000F08C8003F58063984200F0898003F59A
:1008BC008063984216D0042317E0CC680434BFE759
:1008CC00CC680834BCE7CC680C34B9E70261082466
:1008DC00B6E70024B4E70424B2E7061DACF1080225
:1008EC009200B3E7032300E00023AB403343023212
:1008FC00444D45F822304B6813F4801F62D0434AB4
:10090C00936843EA0E0393604B6813F4001F5FD0A7
:10091C003E4AD36843EA0E03D3604B6813F4003F9E
:10092C005CD03A4A536843EA0E0353604B6813F4A5
:10093C00803F59D0354A136843EA0E0313600CF11B
:10094C00010C0B6833FA0CF254D0012202FA0CF2AF
:10095C0003EA020E32EA0303F1D14B68122B3FF685
:10096C004EAF122B3FF66CAF01A555F823F000BF2C
:10097C003B0800084B080008CD080008DF080008F9
:10098C004D0800084D0800084D0800084D080008E7
:10099C004D0800084D0800084D0800084D080008D7
:1009AC004D0800084D0800084D0800084D080008C7
:1009BC004D080008C7080008D3080008012394E775
:1009CC00022392E7114A936823EA0E0393609BE794
:1009DC000E4AD36823EA0E03D3609EE70B4A536892
:1009EC0023EA0E035360A1E7084A136823EA0E03B7
:1009FC001360A4E702B070BD00002210000031109B
:100A0C0000100240000001400008014000040140B9
:100A1C000AB101617047090401617047002800F0B8
:100A2C00CC8070B5044690F83D30002B77D0242351
:100A3C0084F83D302268136823F0010313602268A8
:100A4C00136843F4004313602268136823F40043D3
:100A5C00136000F0C5FB62685A4B9A4264D85A4B3B
:100A6C0098428CBF00230123002B40F0A8805749EB
:100A7C00A1FB00318B0C25686A6822F03F0242EA28
:100A8C0091426A6021680A6A22F03F0266684D4D05
:100A9C00AE424FD8013313430B622168CA6922F46A
:100AAC004F4222F0FF026568464B9D424CD8431ED4
:100ABC006D00B3FBF5F3013340F6FC70034278D0C4
:100ACC00C3F30B031A43CA6121680B6823F0C003FC
:100ADC00E269206A024313430B6021688B6823F49C
:100AEC00034323F0FF032269E068024313438B6046
:100AFC002168CB6823F0FF036269A06902431343AA
:100B0C00CB602268136843F001031360002020645B
:100B1C00202384F83D30206384F83E0070BD80F8BB
:100B2C003C30FFF7EDFB82E7294B98428CBF00234A
:100B3C00012399E74FF4967505FB03F3254DA5FBAF
:100B4C0003539B090133A6E7A668BEB9431E05EB08
:100B5C00450CB3FBFCF30133C3F30B03B3FA83F380
:100B6C005B0943BBC6B9431E05EB4505B3FBF5F367
:100B7C000133C3F30B0343F40043A3E7431E05EB1C
:100B8C00850C0CEB8C0CB3FBFCF30133C3F30B03A4
:100B9C00B3FA83F35B09E4E7431E05EB850505EB2C
:100BAC008505B3FBF5F30133C3F30B0343F4404367
:100BBC0088E7042386E7012384E70120704701209E
:100BCC00ACE700BFA08601007F841E0083DE1B43C0
:100BDC00FF083D00D34D621082B0084B1B68084AD9
:100BEC00A2FB03235B0A00FB03F3019300BF019BF1
:100BFC005A1E0192002BF9D102B070470000002060
:100C0C00D34D6210002800F0F18170B582B004461B
:100C1C00036813F0010F2CD0994B5B6803F00C03A5
:100C2C00042B1DD0964B5B6803F00C03082B12D0E1
:100C3C006368B3F5803F41D0002B55D103F180435D
:100C4C0003F504331A6822F480321A601A6822F40D
:100C5C0080221A6037E08A4B5B6813F4803FE7D040
:100C6C00874B1B6813F4003F03D06368002B00F024
:100C7C00BF81236813F0020F75D0814B5B6813F0B2
:100C8C000C0F5FD07E4B5B6803F00C03082B54D029
:100C9C002369002B00F08A807A4B01221A60FFF73F
:100CAC0093FC0546764B1B6813F0020F75D1FFF7CA
:100CBC008BFC401B0228F5D903209EE1704A136877
:100CCC0043F480331360636843B3FFF77DFC054640
:100CDC006B4B1B6813F4003FCBD1FFF775FC401B2B
:100CEC006428F5D9032088E1B3F5A02F09D0644B13
:100CFC001A6822F480321A601A6822F480221A6070
:100D0C00E1E703F18043A3F53C331A6842F48022F7
:100D1C001A601A6842F480321A60D4E7FFF754FC68
:100D2C000546574B1B6813F4003FA2D0FFF74CFC51
:100D3C00401B6428F5D903205FE1514B5B6813F429
:100D4C00803FA5D14E4B1B6813F0020F03D02369D3
:100D5C00012B40F04F814A4A136823F0F803616974
:100D6C0043EAC1031360236813F0080F33D0A3695F
:100D7C00002B5CD0434B0122C3F88024FFF724FCEA
:100D8C0005463F4B5B6A13F0020F21D1FFF71CFCA9
:100D9C00401B0228F5D903202FE1394A136823F0B0
:100DAC00F803616943EAC1031360DCE7354B0022A9
:100DBC001A60FFF709FC0546314B1B6813F0020F54
:100DCC00D1D0FFF701FC401B0228F5D9032014E118
:100DDC000120FFF701FF236813F0040F00F0968049
:100DEC00274BDB6913F0805F34D1254BDA6942F075
:100DFC008052DA61DB6903F080530193019B01257A
:100E0C00214B1B6813F4807F26D0E368012B3DD067
:100E1C00002B53D103F1804303F504331A6A22F0FB
:100E2C0001021A621A6A22F004021A6233E0154BAC
:100E3C000022C3F88024FFF7C7FB0546104B5B6A02
:100E4C0013F0020FC7D0FFF7BFFB401B0228F5D9E8
:100E5C000320D2E00025D3E70B4A136843F48073D8
:100E6C001360FFF7B1FB0646074B1B6813F4807F3A
:100E7C00CBD1FFF7A9FB801B6428F5D90320BCE07C
:100E8C000010024000004242007000405F4A136AAA
:100E9C0043F001031362E36833B3FFF795FB064697
:100EAC005A4B1B6A13F0020F2FD1FFF78DFB801BDF
:100EBC0041F288339842F3D903209EE0052B09D0E8
:100ECC00524B1A6A22F001021A621A6A22F00402C8
:100EDC001A62E0E74D4B1A6A42F004021A621A6A6F
:100EEC0042F001021A62D6E7FFF76EFB0646474B4B
:100EFC001B6A13F0020F08D0FFF766FB801B41F250
:100F0C0088339842F3D9032077E0E5B9E369002BE5
:100F1C0072D03E4A526802F00C02082A56D0022BBC
:100F2C0017D03B4B00221A66FFF74EFB0446374B9B
:100F3C001B6813F0007F47D0FFF746FB001B02280D
:100F4C00F5D9032059E0314AD36923F08053D3619A
:100F5C00DCE72F4B00221A66FFF736FB05462B4BBE
:100F6C001B6813F0007F06D0FFF72EFB401B0228F6
:100F7C00F5D9032041E0236AB3F5803F1AD0234909
:100F8C004B6823F47413226A606A024313434B6068
:100F9C001F4B01221A66FFF717FB04461B4B1B68FD
:100FAC0013F0007F0ED1FFF70FFB001B0228F5D9C1
:100FBC00032022E0154A536823F40033A1680B4345
:100FCC005360DCE7002018E0002016E0012B16D05F
:100FDC000E4B5B6803F48031226A914211D103F409
:100FEC007013626A93420ED1002006E00120704714
:100FFC00012002E0012000E0002002B070BD0120C1
:10100C00FBE70120F9E70120F7E700BF00100240E1
:10101C00000042420F4B5B6803F00C02082A01D01F
:10102C000D487047C3F383420C49885C13F4803F2E
:10103C000BD0084B5B68C3F34043094AD35C064AA8
:10104C0002FB00F0B0FBF3F07047064B03FB00F023
:10105C00704700BF0010024000127A00B81400085C
:10106C00B414000800093D00002800F0A08070B501
:10107C000D460446524B1B6803F007038B420BD200
:10108C004F4A136823F007030B431360136803F0F4
:10109C0007038B4240F08D80236813F0020F17D0AA
:1010AC0013F0040F04D0474A536843F4E0635360D1
:1010BC00236813F0080F04D0424A536843F460537A
:1010CC005360404A536823F0F003A1680B4353600C
:1010DC00236813F0010F31D06368012B20D0022B51
:1010EC0025D0384A126812F0020F64D035494A688C
:1010FC0022F0030213434B60FFF766FA0646314BAE
:10110C005B6803F00C036268B3EB820F16D0FFF739
:10111C005BFA801B41F288339842F0D9032045E0FA
:10112C00284A126812F4003FE0D101203EE0254A23
:10113C00126812F0007FD9D1012037E0204B1B68D8
:10114C0003F00703AB420AD91D4A136823F00703C7
:10115C002B431360136803F00703AB422DD12368B4
:10116C0013F0040F06D0174A536823F4E063E168C8
:10117C000B435360236813F0080F07D0114A5368D0
:10118C0023F46053216943EAC1035360FFF742FF24
:10119C000C4B5B68C3F303130B4AD35CD8400B4B6B
:1011AC0018600B4B1868FFF7CBF9002070BD0120BD
:1011BC0070470120FAE70120F8E70120F6E700BFAD
:1011CC000020024000100240A4140008000000207F
:1011DC0008000020014B1868704700BF0000002079
:1011EC0008B5FFF7F7FF044B5B68C3F30223034A10
:1011FC00D35CD84008BD00BF001002409C1400080E
:10120C00002856D010B50446436A33B94368B3F589
:10121C00827F05D00023C36102E000230361436198
:10122C000023A36294F85130002B3CD0022384F8A5
:10123C0051302268136823F040031360636803F491
:10124C008273A26802F404421343E26802F400625F
:10125C001343226902F002021343626902F0010295
:10126C001343A26902F400721343E26902F03802DC
:10127C001343226A02F080021343A26A02F4005262
:10128C00216813430B60638B226803F004035360E3
:10129C002268D36923F40063D361002060650123C5
:1012AC0084F8513010BD84F850302046FFF7BAF85E
:1012BC00BCE701207047000070B5860747D0541E6C
:1012CC00002A3ED00346CAB201E0013C39D303F8F0
:1012DC00012B9D07F9D1032C2CD9CDB205EB05259B
:1012EC000F2C1A4605EB054534D9A4F1100C2CF043
:1012FC000F0603F1100EB6444FEA1C1CC2E9005550
:10130C00C2E9025510327245F8D10CF1010214F009
:10131C000C0F03EB021204F00F0C13D0ACF104030E
:10132C0023F003030433134442F8045B9342FBD1D0
:10133C000CF003042CB1C9B21C4403F8011BA342EA
:10134C00FBD170BD64461346002CF4D1F9E703467B
:10135C001446C0E7A446E1E770B50F4B0F4DAB4206
:10136C00A3EB050607D00024B61055F8043B013456
:10137C009847A642F9D800F07FF8094D094B5E1B3F
:10138C00AB424FEAA60606D0002455F8043B0134C4
:10139C009847A642F9D870BDC8140008C8140008B4
:1013AC00C8140008D0140008704700BF704700BF75
:1013BC00024B13B1024800F005B870470000000062
:1013CC00DD130008002301461A46184600F014B835
:1013DC0038B5074D074C2C1BA41005D0013C55F813
:1013EC00043D9847002CF9D1BDE8384000F04AB8CC
:1013FC00D4140008D01400082DE9F8431B4D064600
:10140C00286898460F469146FFF7CEFF184B1C688C
:10141C001CB3286865681F2D22DC4EB96B1C023585
:10142C00636044F82570FFF7C1FF0020BDE8F88326
:10143C00012304EB8501C1F88890D4F88821AB40D6
:10144C001A43022EC4F88821C1F80881E6D1D4F8D9
:10145C008C211A43C4F88C21E0E7064C1C60D8E7B9
:10146C00FFF7A4FF4FF0FF30E0E700BF0C000020B7
:10147C00080100200C010020F8B500BFF8BC08BC26
:10148C009E467047F8B500BFF8BC08BC9E46704736
:10149C000000000001020304000000000000000036
:1014AC0001020304060708090102000002030405F7
:0C14BC00060708090A0B0C0D0E0F10109B
:0814C800BD13000875010008C6
:0414D0004D010008C2
:1014D40000127A0001000000100000000401002046
:0400000508000501E9
:00000001FF
